{
  "address": "0x939A523f4E0eD100FF095BE1CB160A634Ad93AdA",
  "abi": [
    {
      "inputs": [
        {
          "internalType": "address",
          "name": "_permissionManagerContract",
          "type": "address"
        },
        {
          "internalType": "address",
          "name": "_storageContract",
          "type": "address"
        }
      ],
      "stateMutability": "nonpayable",
      "type": "constructor"
    },
    {
      "anonymous": false,
      "inputs": [
        {
          "indexed": false,
          "internalType": "uint256",
          "name": "id",
          "type": "uint256"
        }
      ],
      "name": "AddAsset",
      "type": "event"
    },
    {
      "anonymous": false,
      "inputs": [
        {
          "indexed": false,
          "internalType": "uint256",
          "name": "_id",
          "type": "uint256"
        }
      ],
      "name": "AddPaymentMethod",
      "type": "event"
    },
    {
      "anonymous": false,
      "inputs": [
        {
          "indexed": false,
          "internalType": "uint256",
          "name": "_id",
          "type": "uint256"
        }
      ],
      "name": "AddPaymentMethodCategory",
      "type": "event"
    },
    {
      "anonymous": false,
      "inputs": [
        {
          "indexed": false,
          "internalType": "uint256",
          "name": "_id",
          "type": "uint256"
        }
      ],
      "name": "RemovePaymentMethod",
      "type": "event"
    },
    {
      "anonymous": false,
      "inputs": [
        {
          "indexed": false,
          "internalType": "uint256",
          "name": "_id",
          "type": "uint256"
        }
      ],
      "name": "RemovePaymentMethodCategory",
      "type": "event"
    },
    {
      "anonymous": false,
      "inputs": [
        {
          "indexed": true,
          "internalType": "address",
          "name": "_contract",
          "type": "address"
        }
      ],
      "name": "SetPermissionManager",
      "type": "event"
    },
    {
      "anonymous": false,
      "inputs": [
        {
          "indexed": true,
          "internalType": "address",
          "name": "_contractAddress",
          "type": "address"
        }
      ],
      "name": "SetStorage",
      "type": "event"
    },
    {
      "anonymous": false,
      "inputs": [
        {
          "indexed": false,
          "internalType": "uint256",
          "name": "id",
          "type": "uint256"
        }
      ],
      "name": "UpdateAsset",
      "type": "event"
    },
    {
      "anonymous": false,
      "inputs": [
        {
          "indexed": false,
          "internalType": "uint256",
          "name": "_id",
          "type": "uint256"
        }
      ],
      "name": "UpdatePaymentMethod",
      "type": "event"
    },
    {
      "anonymous": false,
      "inputs": [
        {
          "indexed": false,
          "internalType": "uint256",
          "name": "categoryId",
          "type": "uint256"
        }
      ],
      "name": "UpdatePaymentMethodCategory",
      "type": "event"
    },
    {
      "inputs": [],
      "name": "PERMISSION_MANAGER",
      "outputs": [
        {
          "internalType": "contract IPermissionManager",
          "name": "",
          "type": "address"
        }
      ],
      "stateMutability": "view",
      "type": "function"
    },
    {
      "inputs": [],
      "name": "STORAGE_CONTRACT",
      "outputs": [
        {
          "internalType": "contract IStorage",
          "name": "",
          "type": "address"
        }
      ],
      "stateMutability": "view",
      "type": "function"
    },
    {
      "inputs": [
        {
          "internalType": "address",
          "name": "contractAddress",
          "type": "address"
        },
        {
          "internalType": "bool",
          "name": "isPegged",
          "type": "bool"
        },
        {
          "internalType": "address",
          "name": "peggedAssetGateway",
          "type": "address"
        },
        {
          "internalType": "string",
          "name": "originalName",
          "type": "string"
        },
        {
          "internalType": "string",
          "name": "originalSymbol",
          "type": "string"
        },
        {
          "internalType": "string",
          "name": "priceFeedProvider",
          "type": "string"
        },
        {
          "internalType": "address",
          "name": "priceFeedContract",
          "type": "address"
        },
        {
          "internalType": "bool",
          "name": "isEnabled",
          "type": "bool"
        }
      ],
      "name": "addAsset",
      "outputs": [
        {
          "internalType": "uint256",
          "name": "",
          "type": "uint256"
        }
      ],
      "stateMutability": "nonpayable",
      "type": "function"
    },
    {
      "inputs": [
        {
          "internalType": "string",
          "name": "name",
          "type": "string"
        },
        {
          "internalType": "uint256",
          "name": "categoryId",
          "type": "uint256"
        },
        {
          "internalType": "uint256",
          "name": "minPaymentWindow",
          "type": "uint256"
        },
        {
          "internalType": "uint256",
          "name": "maxPaymentWindow",
          "type": "uint256"
        },
        {
          "internalType": "string[]",
          "name": "countries",
          "type": "string[]"
        },
        {
          "internalType": "string[]",
          "name": "continents",
          "type": "string[]"
        },
        {
          "internalType": "bool",
          "name": "isEnabled",
          "type": "bool"
        }
      ],
      "name": "addPaymentMethod",
      "outputs": [
        {
          "internalType": "uint256",
          "name": "",
          "type": "uint256"
        }
      ],
      "stateMutability": "nonpayable",
      "type": "function"
    },
    {
      "inputs": [
        {
          "internalType": "string",
          "name": "name",
          "type": "string"
        },
        {
          "internalType": "bool",
          "name": "isEnabled",
          "type": "bool"
        }
      ],
      "name": "addPaymentMethodCategory",
      "outputs": [
        {
          "internalType": "uint256",
          "name": "",
          "type": "uint256"
        }
      ],
      "stateMutability": "nonpayable",
      "type": "function"
    },
    {
      "inputs": [],
      "name": "getAllAssets",
      "outputs": [
        {
          "components": [
            {
              "internalType": "uint256",
              "name": "id",
              "type": "uint256"
            },
            {
              "internalType": "address",
              "name": "contractAddress",
              "type": "address"
            },
            {
              "internalType": "uint8",
              "name": "decimals",
              "type": "uint8"
            },
            {
              "internalType": "bool",
              "name": "isPegged",
              "type": "bool"
            },
            {
              "internalType": "address",
              "name": "peggedAssetGateway",
              "type": "address"
            },
            {
              "internalType": "string",
              "name": "originalName",
              "type": "string"
            },
            {
              "internalType": "string",
              "name": "originalSymbol",
              "type": "string"
            },
            {
              "internalType": "string",
              "name": "priceFeedProvider",
              "type": "string"
            },
            {
              "internalType": "address",
              "name": "priceFeedContract",
              "type": "address"
            },
            {
              "internalType": "bool",
              "name": "isEnabled",
              "type": "bool"
            },
            {
              "internalType": "uint256",
              "name": "createdAt",
              "type": "uint256"
            },
            {
              "internalType": "uint256",
              "name": "updatedAt",
              "type": "uint256"
            }
          ],
          "internalType": "struct AssetsStructs.AssetItem[]",
          "name": "",
          "type": "tuple[]"
        }
      ],
      "stateMutability": "view",
      "type": "function"
    },
    {
      "inputs": [],
      "name": "getAllConfigs",
      "outputs": [
        {
          "components": [
            {
              "internalType": "string",
              "name": "_key",
              "type": "string"
            },
            {
              "internalType": "bytes32",
              "name": "_value",
              "type": "bytes32"
            }
          ],
          "internalType": "struct ConfigsStructs.ConfigItem[]",
          "name": "",
          "type": "tuple[]"
        }
      ],
      "stateMutability": "view",
      "type": "function"
    },
    {
      "inputs": [
        {
          "internalType": "address",
          "name": "_contractAddress",
          "type": "address"
        }
      ],
      "name": "getAsset",
      "outputs": [
        {
          "components": [
            {
              "internalType": "uint256",
              "name": "id",
              "type": "uint256"
            },
            {
              "internalType": "address",
              "name": "contractAddress",
              "type": "address"
            },
            {
              "internalType": "uint8",
              "name": "decimals",
              "type": "uint8"
            },
            {
              "internalType": "bool",
              "name": "isPegged",
              "type": "bool"
            },
            {
              "internalType": "address",
              "name": "peggedAssetGateway",
              "type": "address"
            },
            {
              "internalType": "string",
              "name": "originalName",
              "type": "string"
            },
            {
              "internalType": "string",
              "name": "originalSymbol",
              "type": "string"
            },
            {
              "internalType": "string",
              "name": "priceFeedProvider",
              "type": "string"
            },
            {
              "internalType": "address",
              "name": "priceFeedContract",
              "type": "address"
            },
            {
              "internalType": "bool",
              "name": "isEnabled",
              "type": "bool"
            },
            {
              "internalType": "uint256",
              "name": "createdAt",
              "type": "uint256"
            },
            {
              "internalType": "uint256",
              "name": "updatedAt",
              "type": "uint256"
            }
          ],
          "internalType": "struct AssetsStructs.AssetItem",
          "name": "",
          "type": "tuple"
        }
      ],
      "stateMutability": "view",
      "type": "function"
    },
    {
      "inputs": [
        {
          "internalType": "uint256",
          "name": "_id",
          "type": "uint256"
        }
      ],
      "name": "getAssetById",
      "outputs": [
        {
          "components": [
            {
              "internalType": "uint256",
              "name": "id",
              "type": "uint256"
            },
            {
              "internalType": "address",
              "name": "contractAddress",
              "type": "address"
            },
            {
              "internalType": "uint8",
              "name": "decimals",
              "type": "uint8"
            },
            {
              "internalType": "bool",
              "name": "isPegged",
              "type": "bool"
            },
            {
              "internalType": "address",
              "name": "peggedAssetGateway",
              "type": "address"
            },
            {
              "internalType": "string",
              "name": "originalName",
              "type": "string"
            },
            {
              "internalType": "string",
              "name": "originalSymbol",
              "type": "string"
            },
            {
              "internalType": "string",
              "name": "priceFeedProvider",
              "type": "string"
            },
            {
              "internalType": "address",
              "name": "priceFeedContract",
              "type": "address"
            },
            {
              "internalType": "bool",
              "name": "isEnabled",
              "type": "bool"
            },
            {
              "internalType": "uint256",
              "name": "createdAt",
              "type": "uint256"
            },
            {
              "internalType": "uint256",
              "name": "updatedAt",
              "type": "uint256"
            }
          ],
          "internalType": "struct AssetsStructs.AssetItem",
          "name": "",
          "type": "tuple"
        }
      ],
      "stateMutability": "view",
      "type": "function"
    },
    {
      "inputs": [],
      "name": "getChainID",
      "outputs": [
        {
          "internalType": "uint256",
          "name": "",
          "type": "uint256"
        }
      ],
      "stateMutability": "view",
      "type": "function"
    },
    {
      "inputs": [
        {
          "internalType": "string",
          "name": "_key",
          "type": "string"
        }
      ],
      "name": "getConfig",
      "outputs": [
        {
          "internalType": "bytes32",
          "name": "",
          "type": "bytes32"
        }
      ],
      "stateMutability": "view",
      "type": "function"
    },
    {
      "inputs": [],
      "name": "getDataStore",
      "outputs": [
        {
          "internalType": "contract IStorage",
          "name": "",
          "type": "address"
        }
      ],
      "stateMutability": "view",
      "type": "function"
    },
    {
      "inputs": [
        {
          "internalType": "string",
          "name": "_asset",
          "type": "string"
        }
      ],
      "name": "getLatestPrice",
      "outputs": [
        {
          "internalType": "uint256",
          "name": "",
          "type": "uint256"
        }
      ],
      "stateMutability": "view",
      "type": "function"
    },
    {
      "inputs": [
        {
          "internalType": "uint256",
          "name": "_id",
          "type": "uint256"
        }
      ],
      "name": "getPaymentMethod",
      "outputs": [
        {
          "components": [
            {
              "internalType": "uint256",
              "name": "id",
              "type": "uint256"
            },
            {
              "internalType": "string",
              "name": "name",
              "type": "string"
            },
            {
              "internalType": "uint256",
              "name": "categoryId",
              "type": "uint256"
            },
            {
              "internalType": "uint256",
              "name": "minPaymentWindow",
              "type": "uint256"
            },
            {
              "internalType": "uint256",
              "name": "maxPaymentWindow",
              "type": "uint256"
            },
            {
              "internalType": "string[]",
              "name": "countries",
              "type": "string[]"
            },
            {
              "internalType": "string[]",
              "name": "continents",
              "type": "string[]"
            },
            {
              "internalType": "bool",
              "name": "isEnabled",
              "type": "bool"
            }
          ],
          "internalType": "struct PaymentMethodsStructs.PaymentMethodItem",
          "name": "",
          "type": "tuple"
        }
      ],
      "stateMutability": "view",
      "type": "function"
    },
    {
      "inputs": [],
      "name": "getPaymentMethods",
      "outputs": [
        {
          "components": [
            {
              "internalType": "uint256",
              "name": "id",
              "type": "uint256"
            },
            {
              "internalType": "string",
              "name": "name",
              "type": "string"
            },
            {
              "internalType": "uint256",
              "name": "categoryId",
              "type": "uint256"
            },
            {
              "internalType": "uint256",
              "name": "minPaymentWindow",
              "type": "uint256"
            },
            {
              "internalType": "uint256",
              "name": "maxPaymentWindow",
              "type": "uint256"
            },
            {
              "internalType": "string[]",
              "name": "countries",
              "type": "string[]"
            },
            {
              "internalType": "string[]",
              "name": "continents",
              "type": "string[]"
            },
            {
              "internalType": "bool",
              "name": "isEnabled",
              "type": "bool"
            }
          ],
          "internalType": "struct PaymentMethodsStructs.PaymentMethodItem[]",
          "name": "",
          "type": "tuple[]"
        }
      ],
      "stateMutability": "view",
      "type": "function"
    },
    {
      "inputs": [],
      "name": "getPaymentMethodsAndCategories",
      "outputs": [
        {
          "components": [
            {
              "internalType": "uint256",
              "name": "id",
              "type": "uint256"
            },
            {
              "internalType": "string",
              "name": "name",
              "type": "string"
            },
            {
              "internalType": "bool",
              "name": "isEnabled",
              "type": "bool"
            }
          ],
          "internalType": "struct PaymentMethodsStructs.CategoryItem[]",
          "name": "",
          "type": "tuple[]"
        },
        {
          "components": [
            {
              "internalType": "uint256",
              "name": "id",
              "type": "uint256"
            },
            {
              "internalType": "string",
              "name": "name",
              "type": "string"
            },
            {
              "internalType": "uint256",
              "name": "categoryId",
              "type": "uint256"
            },
            {
              "internalType": "uint256",
              "name": "minPaymentWindow",
              "type": "uint256"
            },
            {
              "internalType": "uint256",
              "name": "maxPaymentWindow",
              "type": "uint256"
            },
            {
              "internalType": "string[]",
              "name": "countries",
              "type": "string[]"
            },
            {
              "internalType": "string[]",
              "name": "continents",
              "type": "string[]"
            },
            {
              "internalType": "bool",
              "name": "isEnabled",
              "type": "bool"
            }
          ],
          "internalType": "struct PaymentMethodsStructs.PaymentMethodItem[]",
          "name": "",
          "type": "tuple[]"
        }
      ],
      "stateMutability": "view",
      "type": "function"
    },
    {
      "inputs": [
        {
          "internalType": "uint256",
          "name": "categoryId",
          "type": "uint256"
        }
      ],
      "name": "getPaymentMethodsByCategory",
      "outputs": [
        {
          "components": [
            {
              "internalType": "uint256",
              "name": "id",
              "type": "uint256"
            },
            {
              "internalType": "string",
              "name": "name",
              "type": "string"
            },
            {
              "internalType": "uint256",
              "name": "categoryId",
              "type": "uint256"
            },
            {
              "internalType": "uint256",
              "name": "minPaymentWindow",
              "type": "uint256"
            },
            {
              "internalType": "uint256",
              "name": "maxPaymentWindow",
              "type": "uint256"
            },
            {
              "internalType": "string[]",
              "name": "countries",
              "type": "string[]"
            },
            {
              "internalType": "string[]",
              "name": "continents",
              "type": "string[]"
            },
            {
              "internalType": "bool",
              "name": "isEnabled",
              "type": "bool"
            }
          ],
          "internalType": "struct PaymentMethodsStructs.PaymentMethodItem[]",
          "name": "",
          "type": "tuple[]"
        }
      ],
      "stateMutability": "view",
      "type": "function"
    },
    {
      "inputs": [],
      "name": "getPaymentMethodsCategories",
      "outputs": [
        {
          "components": [
            {
              "internalType": "uint256",
              "name": "id",
              "type": "uint256"
            },
            {
              "internalType": "string",
              "name": "name",
              "type": "string"
            },
            {
              "internalType": "bool",
              "name": "isEnabled",
              "type": "bool"
            }
          ],
          "internalType": "struct PaymentMethodsStructs.CategoryItem[]",
          "name": "",
          "type": "tuple[]"
        }
      ],
      "stateMutability": "view",
      "type": "function"
    },
    {
      "inputs": [
        {
          "internalType": "string",
          "name": "_asset",
          "type": "string"
        }
      ],
      "name": "getPriceFeedContract",
      "outputs": [
        {
          "internalType": "address",
          "name": "",
          "type": "address"
        }
      ],
      "stateMutability": "view",
      "type": "function"
    },
    {
      "inputs": [],
      "name": "getTotalPaymentMethods",
      "outputs": [
        {
          "internalType": "uint256",
          "name": "",
          "type": "uint256"
        }
      ],
      "stateMutability": "view",
      "type": "function"
    },
    {
      "inputs": [],
      "name": "getTotalPaymentMethodsCategories",
      "outputs": [
        {
          "internalType": "uint256",
          "name": "",
          "type": "uint256"
        }
      ],
      "stateMutability": "view",
      "type": "function"
    },
    {
      "inputs": [
        {
          "internalType": "string",
          "name": "roleName",
          "type": "string"
        },
        {
          "internalType": "address",
          "name": "_address",
          "type": "address"
        }
      ],
      "name": "grantRole",
      "outputs": [],
      "stateMutability": "nonpayable",
      "type": "function"
    },
    {
      "inputs": [
        {
          "internalType": "string",
          "name": "roleName",
          "type": "string"
        },
        {
          "internalType": "address",
          "name": "_address",
          "type": "address"
        }
      ],
      "name": "hasRole",
      "outputs": [
        {
          "internalType": "bool",
          "name": "",
          "type": "bool"
        }
      ],
      "stateMutability": "view",
      "type": "function"
    },
    {
      "inputs": [
        {
          "internalType": "address",
          "name": "_contractAddress",
          "type": "address"
        }
      ],
      "name": "isAssetSupported",
      "outputs": [
        {
          "internalType": "bool",
          "name": "",
          "type": "bool"
        }
      ],
      "stateMutability": "view",
      "type": "function"
    },
    {
      "inputs": [
        {
          "internalType": "uint256",
          "name": "_id",
          "type": "uint256"
        }
      ],
      "name": "isValidAssetItem",
      "outputs": [
        {
          "internalType": "bool",
          "name": "",
          "type": "bool"
        }
      ],
      "stateMutability": "view",
      "type": "function"
    },
    {
      "inputs": [],
      "name": "providerName",
      "outputs": [
        {
          "internalType": "string",
          "name": "",
          "type": "string"
        }
      ],
      "stateMutability": "view",
      "type": "function"
    },
    {
      "inputs": [
        {
          "internalType": "uint256",
          "name": "_id",
          "type": "uint256"
        }
      ],
      "name": "removePaymentMethod",
      "outputs": [],
      "stateMutability": "nonpayable",
      "type": "function"
    },
    {
      "inputs": [
        {
          "internalType": "uint256",
          "name": "_id",
          "type": "uint256"
        }
      ],
      "name": "removePaymentMethodCategory",
      "outputs": [],
      "stateMutability": "nonpayable",
      "type": "function"
    },
    {
      "inputs": [
        {
          "internalType": "string",
          "name": "_asset",
          "type": "string"
        },
        {
          "internalType": "address",
          "name": "_contract",
          "type": "address"
        }
      ],
      "name": "setAssetPriceFeedContract",
      "outputs": [],
      "stateMutability": "nonpayable",
      "type": "function"
    },
    {
      "inputs": [
        {
          "internalType": "string",
          "name": "_key",
          "type": "string"
        },
        {
          "internalType": "bytes32",
          "name": "_value",
          "type": "bytes32"
        }
      ],
      "name": "setConfigData",
      "outputs": [],
      "stateMutability": "nonpayable",
      "type": "function"
    },
    {
      "inputs": [
        {
          "internalType": "address",
          "name": "_newAddress",
          "type": "address"
        }
      ],
      "name": "setPermissionManager",
      "outputs": [],
      "stateMutability": "nonpayable",
      "type": "function"
    },
    {
      "inputs": [
        {
          "internalType": "address",
          "name": "_storageContract",
          "type": "address"
        }
      ],
      "name": "setStorage",
      "outputs": [],
      "stateMutability": "nonpayable",
      "type": "function"
    },
    {
      "inputs": [
        {
          "internalType": "string",
          "name": "_text",
          "type": "string"
        },
        {
          "internalType": "string",
          "name": "_params",
          "type": "string"
        }
      ],
      "name": "statusMsg",
      "outputs": [
        {
          "internalType": "string",
          "name": "",
          "type": "string"
        }
      ],
      "stateMutability": "pure",
      "type": "function"
    },
    {
      "inputs": [
        {
          "internalType": "string",
          "name": "_text",
          "type": "string"
        },
        {
          "internalType": "bytes32",
          "name": "_params",
          "type": "bytes32"
        }
      ],
      "name": "statusMsg",
      "outputs": [
        {
          "internalType": "string",
          "name": "",
          "type": "string"
        }
      ],
      "stateMutability": "pure",
      "type": "function"
    },
    {
      "inputs": [
        {
          "internalType": "string",
          "name": "_text",
          "type": "string"
        }
      ],
      "name": "statusMsg",
      "outputs": [
        {
          "internalType": "string",
          "name": "",
          "type": "string"
        }
      ],
      "stateMutability": "pure",
      "type": "function"
    },
    {
      "inputs": [
        {
          "internalType": "string",
          "name": "_data",
          "type": "string"
        }
      ],
      "name": "toBytes32",
      "outputs": [
        {
          "internalType": "bytes32",
          "name": "",
          "type": "bytes32"
        }
      ],
      "stateMutability": "pure",
      "type": "function"
    },
    {
      "inputs": [
        {
          "internalType": "uint256",
          "name": "_data",
          "type": "uint256"
        }
      ],
      "name": "toBytes32",
      "outputs": [
        {
          "internalType": "bytes32",
          "name": "",
          "type": "bytes32"
        }
      ],
      "stateMutability": "pure",
      "type": "function"
    },
    {
      "inputs": [
        {
          "internalType": "address",
          "name": "_data",
          "type": "address"
        }
      ],
      "name": "toBytes32",
      "outputs": [
        {
          "internalType": "bytes32",
          "name": "",
          "type": "bytes32"
        }
      ],
      "stateMutability": "pure",
      "type": "function"
    },
    {
      "inputs": [
        {
          "internalType": "uint256",
          "name": "id",
          "type": "uint256"
        },
        {
          "internalType": "address",
          "name": "contractAddress",
          "type": "address"
        },
        {
          "internalType": "bool",
          "name": "isPegged",
          "type": "bool"
        },
        {
          "internalType": "address",
          "name": "peggedAssetGateway",
          "type": "address"
        },
        {
          "internalType": "string",
          "name": "originalName",
          "type": "string"
        },
        {
          "internalType": "string",
          "name": "originalSymbol",
          "type": "string"
        },
        {
          "internalType": "string",
          "name": "priceFeedProvider",
          "type": "string"
        },
        {
          "internalType": "address",
          "name": "priceFeedContract",
          "type": "address"
        },
        {
          "internalType": "bool",
          "name": "isEnabled",
          "type": "bool"
        }
      ],
      "name": "updateAsset",
      "outputs": [
        {
          "internalType": "uint256",
          "name": "",
          "type": "uint256"
        }
      ],
      "stateMutability": "nonpayable",
      "type": "function"
    },
    {
      "inputs": [
        {
          "components": [
            {
              "internalType": "uint256",
              "name": "id",
              "type": "uint256"
            },
            {
              "internalType": "string",
              "name": "name",
              "type": "string"
            },
            {
              "internalType": "uint256",
              "name": "categoryId",
              "type": "uint256"
            },
            {
              "internalType": "uint256",
              "name": "minPaymentWindow",
              "type": "uint256"
            },
            {
              "internalType": "uint256",
              "name": "maxPaymentWindow",
              "type": "uint256"
            },
            {
              "internalType": "string[]",
              "name": "countries",
              "type": "string[]"
            },
            {
              "internalType": "string[]",
              "name": "continents",
              "type": "string[]"
            },
            {
              "internalType": "bool",
              "name": "isEnabled",
              "type": "bool"
            }
          ],
          "internalType": "struct PaymentMethodsStructs.PaymentMethodItem",
          "name": "_dataToSave",
          "type": "tuple"
        },
        {
          "internalType": "uint256",
          "name": "categoryId",
          "type": "uint256"
        }
      ],
      "name": "updatePaymentMethod",
      "outputs": [],
      "stateMutability": "nonpayable",
      "type": "function"
    },
    {
      "inputs": [
        {
          "internalType": "uint256",
          "name": "categoryId",
          "type": "uint256"
        },
        {
          "internalType": "string",
          "name": "newCategoryName",
          "type": "string"
        },
        {
          "internalType": "bool",
          "name": "isEnabled",
          "type": "bool"
        }
      ],
      "name": "updatePaymentMethodCategory",
      "outputs": [],
      "stateMutability": "nonpayable",
      "type": "function"
    }
  ],
  "transactionHash": "0x4c15dbc0d652b0e79c86a3e54d016832afc73e01d9fbf8c0093a8b25e12a90ca",
  "args": [
    "0x9fA14091f1434d6474897BA732fADfD4F677DED5",
    "0x01460e3F9E8A40dA2EFc3aeD0dEff0e7FA0A46e7"
  ],
  "solcInputHash": "089d952b7f88b34afffa9873dbe81ce6",
  "bytecode": "0x60c06040526009608081905268436861696e4c696e6b60b81b60a09081526200002c916003919062000294565b50600580546001600160a01b031916301790553480156200004c57600080fd5b50604051620042aa380380620042aa8339810160408190526200006f916200035d565b600180546001600160a01b031916331790556200008c826200009f565b620000978162000190565b505062000394565b600054600160a01b900460ff1615620000ea5760405162461bcd60e51b8152600401808060200182810382526026815260200180620042846026913960400191505060405180910390fd5b6001546001600160a01b03163314620001355760405162461bcd60e51b81526004018080602001828103825260228152602001806200423f6022913960400191505060405180910390fd5b600080546001600160a01b0319166001600160a01b038316908117825560405190917f42efee88e49f0921043269e91c7b4f5bfb699d653f5dc2d161a9c19d87da966491a2506000805460ff60a01b1916600160a01b179055565b600254600160a01b900460ff1615620001f0576040805162461bcd60e51b815260206004820152601d60248201527f4441544153544f52455f414c52454144595f494e495449414c495a4544000000604482015290519081900360640190fd5b6001600160a01b038116620002375760405162461bcd60e51b8152600401808060200182810382526023815260200180620042616023913960400191505060405180910390fd5b600280546001600160a01b0319166001600160a01b0383169081179091556040517fbed5d690d7485891a709a800c39a0328cac99afa5f118a4cd4a174b9dc26263790600090a2506002805460ff60a01b1916600160a01b179055565b828054600181600116156101000203166002900490600052602060002090601f016020900481019282620002cc576000855562000317565b82601f10620002e757805160ff191683800117855562000317565b8280016001018555821562000317579182015b8281111562000317578251825591602001919060010190620002fa565b506200032592915062000329565b5090565b5b808211156200032557600081556001016200032a565b80516001600160a01b03811681146200035857600080fd5b919050565b6000806040838503121562000370578182fd5b6200037b8362000340565b91506200038b6020840162000340565b90509250929050565b613e9b80620003a46000396000f3fe608060405234801561001057600080fd5b50600436106102525760003560e01c8063769e85a911610146578063a583d76e116100c3578063c59c57b611610087578063c59c57b61461051d578063c89f7bb914610525578063cea86eb214610538578063e115da8e1461054b578063f66a1b711461055e578063fe58265e1461057157610252565b8063a583d76e146104be578063b3e444a7146104d1578063b44bd51d146104e4578063b4f60ebb146104f7578063c19ae2ed1461050a57610252565b80639137c1a71161010a5780639137c1a7146104725780639277e91c146104855780639b103f431461048d578063a1627cd0146104a3578063a31609d6146104ab57610252565b8063769e85a91461041157806378ad03691461042457806382bd3dd41461043757806389f6881d1461044a5780638a5553da1461045f57610252565b80633ba0bdb0116101d4578063635079561161019857806363507956146103b0578063660f5950146103c557806367dfc3bb146103d85780636c9cd097146103eb57806373aafb53146103fe57610252565b80633ba0bdb014610365578063464b41581461036d57806349e4b3e51461038d578063564b81ef146103a057806356604eae146103a857610252565b8063203bdbd11161021b578063203bdbd1146102dd57806325b3ca19146102fd57806327df8f2a146103105780632acada4d1461033057806330b8b2c61461034557610252565b8062dad7d4146102575780630335d86a14610275578063063618421461028857806315a909b1146102a85780631c944100146102bd575b600080fd5b61025f610579565b60405161026c9190613c1c565b60405180910390f35b61025f6102833660046130e6565b610607565b61029b6102963660046135ba565b610633565b60405161026c9190613bfe565b6102bb6102b63660046135ba565b6106f9565b005b6102d06102cb3660046135ba565b61084e565b60405161026c9190613cea565b6102f06102eb366004612fad565b6108e3565b60405161026c9190613ad6565b6102bb61030b3660046130a4565b61097f565b61032361031e366004612fad565b610aa0565b60405161026c9190613a61565b610338610ad0565b60405161026c9190613aea565b610358610353366004612dcf565b610bf4565b60405161026c9190613cd7565b610323610ce0565b61038061037b366004612dcf565b610d5f565b60405161026c9190613c11565b6102bb61039b366004612dcf565b610d72565b610323610e7e565b6102f0610e82565b6103b8610e91565b60405161026c9190613b8b565b6103806103d33660046135ba565b610f0f565b6103236103e6366004613060565b610f1d565b6103806103f9366004613011565b611119565b61032361040c3660046135ba565b6111fe565b6102bb61041f3660046135ba565b611211565b610323610432366004612dcf565b61135b565b610323610445366004613146565b61136e565b61045261165b565b60405161026c9190613b4a565b61025f61046d3660046130a4565b611771565b6102bb610480366004612dcf565b61179c565b6102f06118ef565b6104956118fe565b60405161026c929190613b5d565b61029b611919565b6102bb6104b9366004613011565b6119b1565b6103236104cc3660046135d2565b611aab565b6103586104df3660046135ba565b611d8f565b6103236104f2366004612fad565b611e1e565b61025f610505366004612fad565b611ea3565b6102bb610518366004613011565b611eb8565b610323612036565b6102bb6105333660046136b3565b612078565b610323610546366004612deb565b6121f3565b6102bb6105593660046134c5565b612494565b61032361056c366004612fad565b6126d1565b6102f0612769565b6003805460408051602060026001851615610100026000190190941693909304601f810184900484028201840190925281815292918301828280156105ff5780601f106105d4576101008083540402835291602001916105ff565b820191906000526020600020905b8154815290600101906020018083116105e257829003601f168201915b505050505081565b6060828260405160200161061c929190613a89565b604051602081830303815290604052905092915050565b6060600061063f612036565b90506000816001016001600160401b038111801561065c57600080fd5b5060405190808252806020026020018201604052801561069657816020015b610683612b58565b81526020019060019003908161067b5790505b50905060015b8281116106ef5760006106ae8261084e565b90508581604001511480156106c857506000816020015151115b156106e657808383815181106106da57fe5b60200260200101819052505b5060010161069c565b509150505b919050565b60005460408051630935e01b60e21b815233600482015290516001600160a01b03909216916324d7806c91602480820192602092909190829003018186803b15801561074457600080fd5b505afa158015610758573d6000803e3d6000fd5b505050506040513d602081101561076e57600080fd5b50516107af576040805162461bcd60e51b81526020600482015260136024820152600080516020613e23833981519152604482015290519081900360640190fd5b6107b7612769565b6001600160a01b031663ef4b51e8826040518263ffffffff1660e01b81526004016107e29190613a61565b600060405180830381600087803b1580156107fc57600080fd5b505af1158015610810573d6000803e3d6000fd5b505050507f58169af9bade406262179496a9592f94be97c18b38f79f7fad0ca7ff7777cfd8816040516108439190613a61565b60405180910390a150565b610856612b58565b61085e612769565b6001600160a01b031663f3fc9120836040518263ffffffff1660e01b81526004016108899190613a61565b60006040518083038186803b1580156108a157600080fd5b505afa1580156108b5573d6000803e3d6000fd5b505050506040513d6000823e601f3d908101601f191682016040526108dd91908101906133d8565b92915050565b6000806004836040516108f69190613a6a565b90815260408051918290036020908101832054838301909252601b83527f434841494e5f464545445f434f4e54524143545f4d495353494e470000000000908301526001600160a01b03169150811515906109519085610607565b906109785760405162461bcd60e51b815260040161096f9190613c1c565b60405180910390fd5b5092915050565b60005460408051630935e01b60e21b815233600482015290516001600160a01b03909216916324d7806c91602480820192602092909190829003018186803b1580156109ca57600080fd5b505afa1580156109de573d6000803e3d6000fd5b505050506040513d60208110156109f457600080fd5b5051610a35576040805162461bcd60e51b81526020600482015260136024820152600080516020613e23833981519152604482015290519081900360640190fd5b610a3d612769565b6001600160a01b031663ec187dde83836040518363ffffffff1660e01b8152600401610a6a929190613c59565b600060405180830381600087803b158015610a8457600080fd5b505af1158015610a98573d6000803e3d6000fd5b505050505050565b600081604051602001610ab39190613a6a565b604051602081830303815290604052805190602001209050919050565b60606000610adc612769565b6001600160a01b0316636e07302b6040518163ffffffff1660e01b815260040160206040518083038186803b158015610b1457600080fd5b505afa158015610b28573d6000803e3d6000fd5b505050506040513d601f19601f82011682018060405250810190610b4c9190612f95565b90506000816001016001600160401b0381118015610b6957600080fd5b50604051908082528060200260200182016040528015610ba357816020015b610b90612b9f565b815260200190600190039081610b885790505b50905060015b828111610bed576000610bbb82611d8f565b9050610bc681612778565b15610be45780838381518110610bd857fe5b60200260200101819052505b50600101610ba9565b5091505090565b610bfc612b9f565b6000610c06612769565b6001600160a01b031663f7d645fb846040518263ffffffff1660e01b8152600401610c319190613ad6565b60206040518083038186803b158015610c4957600080fd5b505afa158015610c5d573d6000803e3d6000fd5b505050506040513d601f19601f82011682018060405250810190610c819190612f95565b905060008111610ca35760405162461bcd60e51b815260040161096f90613cab565b6000610cae82611d8f565b905080610120015115156001151514610cd95760405162461bcd60e51b815260040161096f90613c7b565b9392505050565b6000610cea612769565b6001600160a01b0316633ba0bdb06040518163ffffffff1660e01b815260040160206040518083038186803b158015610d2257600080fd5b505afa158015610d36573d6000803e3d6000fd5b505050506040513d601f19601f82011682018060405250810190610d5a9190612f95565b905090565b60006108dd610d6d83610bf4565b612778565b6000546040805163df7f453b60e01b815233600482015290516001600160a01b039092169163df7f453b91602480820192602092909190829003018186803b158015610dbd57600080fd5b505afa158015610dd1573d6000803e3d6000fd5b505050506040513d6020811015610de757600080fd5b5051610e36576040805162461bcd60e51b815260206004820152601960248201527813d3931657d4d554115497d05113525394d7d0531313d5d151603a1b604482015290519081900360640190fd5b600080546001600160a01b0319166001600160a01b038316908117825560405190917f42efee88e49f0921043269e91c7b4f5bfb699d653f5dc2d161a9c19d87da966491a250565b4690565b6000546001600160a01b031681565b6060610e9b612769565b6001600160a01b031663affd06346040518163ffffffff1660e01b815260040160006040518083038186803b158015610ed357600080fd5b505afa158015610ee7573d6000803e3d6000fd5b505050506040513d6000823e601f3d908101601f19168201604052610d5a9190810190612ec2565b60006108dd610d6d83611d8f565b6000805460408051630935e01b60e21b815233600482015290516001600160a01b03909216916324d7806c91602480820192602092909190829003018186803b158015610f6957600080fd5b505afa158015610f7d573d6000803e3d6000fd5b505050506040513d6020811015610f9357600080fd5b5051610fd4576040805162461bcd60e51b81526020600482015260136024820152600080516020613e23833981519152604482015290519081900360640190fd5b6000610fde612769565b6001600160a01b031663494470166040518163ffffffff1660e01b8152600401602060405180830381600087803b15801561101857600080fd5b505af115801561102c573d6000803e3d6000fd5b505050506040513d601f19601f820116820180604052508101906110509190612f95565b905060006040518060600160405280838152602001868152602001851515815250905061107b612769565b6001600160a01b031663630f310f83836040518363ffffffff1660e01b81526004016110a8929190613d16565b600060405180830381600087803b1580156110c257600080fd5b505af11580156110d6573d6000803e3d6000fd5b505050507f5e9144497b8db39c1252f7fdcb00635af80c9d0809b512495c373ac8b9a2d48f826040516111099190613a61565b60405180910390a1509392505050565b6000805460408051636c9cd09760e01b81526001600160a01b03858116602483015260048201928352865160448301528651931692636c9cd097928792879282916064019060208601908083838c5b83811015611180578181015183820152602001611168565b50505050905090810190601f1680156111ad5780820380516001836020036101000a031916815260200191505b50935050505060206040518083038186803b1580156111cb57600080fd5b505afa1580156111df573d6000803e3d6000fd5b505050506040513d60208110156111f557600080fd5b50519392505050565b600081604051602001610ab39190613a61565b60005460408051630935e01b60e21b815233600482015290516001600160a01b03909216916324d7806c91602480820192602092909190829003018186803b15801561125c57600080fd5b505afa158015611270573d6000803e3d6000fd5b505050506040513d602081101561128657600080fd5b50516112c7576040805162461bcd60e51b81526020600482015260136024820152600080516020613e23833981519152604482015290519081900360640190fd5b6112cf612769565b6001600160a01b031663db8164dc826040518263ffffffff1660e01b81526004016112fa9190613a61565b600060405180830381600087803b15801561131457600080fd5b505af1158015611328573d6000803e3d6000fd5b505050507ff71cfe84cf6a68cdb1bfa1f1db7ac1c20844dddfc12ec663a80454a6b1cab57f816040516108439190613a61565b600081604051602001610ab39190613a44565b6000805460408051630935e01b60e21b815233600482015290516001600160a01b03909216916324d7806c91602480820192602092909190829003018186803b1580156113ba57600080fd5b505afa1580156113ce573d6000803e3d6000fd5b505050506040513d60208110156113e457600080fd5b5051611425576040805162461bcd60e51b81526020600482015260136024820152600080516020613e23833981519152604482015290519081900360640190fd5b60008711801561143c5750611438610ce0565b8711155b6114716040518060400160405280601081526020016f554e4b4e4f574e5f43415445474f525960801b81525061046d8a6111fe565b9061148f5760405162461bcd60e51b815260040161096f9190613c1c565b5060008851116114d36040518060400160405280601c81526020017f5041594d454e545f4d4554484f445f4e414d455f524551554952454400000000815250611ea3565b906114f15760405162461bcd60e51b815260040161096f9190613c1c565b5060006114fc612769565b6001600160a01b031663c04f268e6040518163ffffffff1660e01b8152600401602060405180830381600087803b15801561153657600080fd5b505af115801561154a573d6000803e3d6000fd5b505050506040513d601f19601f8201168201806040525081019061156e9190612f95565b905060006040518061010001604052808381526020018b81526020018a815260200189815260200188815260200187815260200186815260200185151581525090506115b8612769565b6001600160a01b031663b542276783836040518363ffffffff1660e01b81526004016115e5929190613d2f565b600060405180830381600087803b1580156115ff57600080fd5b505af1158015611613573d6000803e3d6000fd5b505050507fab7a036df44e4f9d12893de732519db61274fde697eb92fdbeb65b7fcb13b7cf826040516116469190613a61565b60405180910390a15098975050505050505050565b60606000611667610ce0565b90506000816001016001600160401b038111801561168457600080fd5b506040519080825280602002602001820160405280156116be57816020015b6116ab612c02565b8152602001906001900390816116a35790505b50905060015b828111610bed576116d3612769565b6001600160a01b03166302acd7a4826040518263ffffffff1660e01b81526004016116fe9190613a61565b60006040518083038186803b15801561171657600080fd5b505afa15801561172a573d6000803e3d6000fd5b505050506040513d6000823e601f3d908101601f19168201604052611752919081019061333f565b82828151811061175e57fe5b60209081029190910101526001016116c4565b6060610cd983836040516020016117889190613a61565b604051602081830303815290604052610607565b6000546040805163df7f453b60e01b815233600482015290516001600160a01b039092169163df7f453b91602480820192602092909190829003018186803b1580156117e757600080fd5b505afa1580156117fb573d6000803e3d6000fd5b505050506040513d602081101561181157600080fd5b5051611860576040805162461bcd60e51b815260206004820152601960248201527813d3931657d4d554115497d05113525394d7d0531313d5d151603a1b604482015290519081900360640190fd5b6001600160a01b0381166118a55760405162461bcd60e51b8152600401808060200182810382526023815260200180613e436023913960400191505060405180910390fd5b600280546001600160a01b0319166001600160a01b0383169081179091556040517fbed5d690d7485891a709a800c39a0328cac99afa5f118a4cd4a174b9dc26263790600090a250565b6002546001600160a01b031681565b60608061190961165b565b611911611919565b915091509091565b60606000611925612036565b90506000816001016001600160401b038111801561194257600080fd5b5060405190808252806020026020018201604052801561197c57816020015b611969612b58565b8152602001906001900390816119615790505b50905060015b828111610bed576119928161084e565b82828151811061199e57fe5b6020908102919091010152600101611982565b60005460408051630935e01b60e21b815233600482015290516001600160a01b03909216916324d7806c91602480820192602092909190829003018186803b1580156119fc57600080fd5b505afa158015611a10573d6000803e3d6000fd5b505050506040513d6020811015611a2657600080fd5b5051611a67576040805162461bcd60e51b81526020600482015260136024820152600080516020613e23833981519152604482015290519081900360640190fd5b80600483604051611a789190613a6a565b90815260405190819003602001902080546001600160a01b03929092166001600160a01b03199092169190911790555050565b6000805460408051630935e01b60e21b815233600482015290516001600160a01b03909216916324d7806c91602480820192602092909190829003018186803b158015611af757600080fd5b505afa158015611b0b573d6000803e3d6000fd5b505050506040513d6020811015611b2157600080fd5b5051611b62576040805162461bcd60e51b81526020600482015260136024820152600080516020613e23833981519152604482015290519081900360640190fd5b6000611b6d8b611d8f565b905060006001600160a01b031681602001516001600160a01b03161415611bb86040518060400160405280600d81526020016c155392d393d5d397d054d4d155609a1b815250611ea3565b90611bd65760405162461bcd60e51b815260040161096f9190613c1c565b5060008a905060006040518061018001604052808e81526020018d6001600160a01b03168152602001836001600160a01b031663313ce5676040518163ffffffff1660e01b815260040160206040518083038186803b158015611c3857600080fd5b505afa158015611c4c573d6000803e3d6000fd5b505050506040513d601f19601f82011682018060405250810190611c70919061375a565b60ff1681526020018c151581526020018b6001600160a01b031681526020018a8152602001898152602001888152602001876001600160a01b0316815260200186151581526020018461014001518152602001428152509050611d4781836001600160a01b03166395d89b416040518163ffffffff1660e01b815260040160006040518083038186803b158015611d0657600080fd5b505afa158015611d1a573d6000803e3d6000fd5b505050506040513d6000823e601f3d908101601f19168201604052611d429190810190612fdf565b6127a0565b7f44fdf11a69f146b3a8661496708f46842c61c3f01f6080cf2fbd5b9e9d1ea9608d604051611d769190613a61565b60405180910390a1509a9b9a5050505050505050505050565b611d97612b9f565b611d9f612769565b6001600160a01b0316637d1108f5836040518263ffffffff1660e01b8152600401611dca9190613a61565b60006040518083038186803b158015611de257600080fd5b505afa158015611df6573d6000803e3d6000fd5b505050506040513d6000823e601f3d908101601f191682016040526108dd91908101906131fb565b6000611e28612769565b6001600160a01b031663724fc72c836040518263ffffffff1660e01b8152600401611e539190613c1c565b60206040518083038186803b158015611e6b57600080fd5b505afa158015611e7f573d6000803e3d6000fd5b505050506040513d601f19601f820116820180604052508101906108dd9190612f95565b60606108dd8260405160200161178890613a86565b6000546040805163df7f453b60e01b815233600482015290516001600160a01b039092169163df7f453b91602480820192602092909190829003018186803b158015611f0357600080fd5b505afa158015611f17573d6000803e3d6000fd5b505050506040513d6020811015611f2d57600080fd5b5051611f7c576040805162461bcd60e51b815260206004820152601960248201527813d3931657d4d554115497d05113525394d7d0531313d5d151603a1b604482015290519081900360640190fd5b600080546040805163c19ae2ed60e01b81526001600160a01b0385811660248301526004820192835286516044830152865193169363c19ae2ed93879387939092839260649092019160208701918190849084905b83811015611fe9578181015183820152602001611fd1565b50505050905090810190601f1680156120165780820380516001836020036101000a031916815260200191505b509350505050600060405180830381600087803b158015610a8457600080fd5b6000612040612769565b6001600160a01b031663c59c57b66040518163ffffffff1660e01b815260040160206040518083038186803b158015610d2257600080fd5b60005460408051630935e01b60e21b815233600482015290516001600160a01b03909216916324d7806c91602480820192602092909190829003018186803b1580156120c357600080fd5b505afa1580156120d7573d6000803e3d6000fd5b505050506040513d60208110156120ed57600080fd5b505161212e576040805162461bcd60e51b81526020600482015260136024820152600080516020613e23833981519152604482015290519081900360640190fd5b600060405180606001604052808581526020018481526020018315158152509050612157612769565b6001600160a01b031663630f310f85836040518363ffffffff1660e01b8152600401612184929190613d16565b600060405180830381600087803b15801561219e57600080fd5b505af11580156121b2573d6000803e3d6000fd5b505050507ff7cce03a6fac68a25a7d5fbc0285c5ad178f0ebd8fcd33ed52e0695b9e1d0b64846040516121e59190613a61565b60405180910390a150505050565b6000805460408051630935e01b60e21b815233600482015290516001600160a01b03909216916324d7806c91602480820192602092909190829003018186803b15801561223f57600080fd5b505afa158015612253573d6000803e3d6000fd5b505050506040513d602081101561226957600080fd5b50516122aa576040805162461bcd60e51b81526020600482015260136024820152600080516020613e23833981519152604482015290519081900360640190fd5b8860006122b5612769565b6001600160a01b031663541fa9e76040518163ffffffff1660e01b8152600401602060405180830381600087803b1580156122ef57600080fd5b505af1158015612303573d6000803e3d6000fd5b505050506040513d601f19601f820116820180604052508101906123279190612f95565b905060006040518061018001604052808381526020018d6001600160a01b03168152602001846001600160a01b031663313ce5676040518163ffffffff1660e01b815260040160206040518083038186803b15801561238557600080fd5b505afa158015612399573d6000803e3d6000fd5b505050506040513d601f19601f820116820180604052508101906123bd919061375a565b60ff1681526020018c151581526020018b6001600160a01b031681526020018a8152602001898152602001888152602001876001600160a01b03168152602001861515815260200142815260200142815250905061244e81846001600160a01b03166395d89b416040518163ffffffff1660e01b815260040160006040518083038186803b158015611d0657600080fd5b7fad4b90e063df7b4a2923a77e82769ddbfaad31cbebd03a93d93951cab140b5338260405161247d9190613a61565b60405180910390a1509a9950505050505050505050565b60005460408051630935e01b60e21b815233600482015290516001600160a01b03909216916324d7806c91602480820192602092909190829003018186803b1580156124df57600080fd5b505afa1580156124f3573d6000803e3d6000fd5b505050506040513d602081101561250957600080fd5b505161254a576040805162461bcd60e51b81526020600482015260136024820152600080516020613e23833981519152604482015290519081900360640190fd5b815115801590612562575061255d612036565b825111155b6125a160405180604001604052806016815260200175155392d393d5d397d410565351539517d351551213d160521b81525061046d85600001516111fe565b906125bf5760405162461bcd60e51b815260040161096f9190613c1c565b506000811180156125d757506125d3610ce0565b8111155b61260c6040518060400160405280601081526020016f554e4b4e4f574e5f43415445474f525960801b81525061046d846111fe565b9061262a5760405162461bcd60e51b815260040161096f9190613c1c565b50612633612769565b825160405163b542276760e01b81526001600160a01b03929092169163b542276791612663918690600401613d2f565b600060405180830381600087803b15801561267d57600080fd5b505af1158015612691573d6000803e3d6000fd5b505083516040517fb4692f109985f7be03460badace503fa5013612352e0b842d0ef1200f0dce0f193506126c59250613a61565b60405180910390a15050565b6000806126dd836108e3565b90506000806000806000856001600160a01b031663feaf968c6040518163ffffffff1660e01b815260040160a06040518083038186803b15801561272057600080fd5b505afa158015612734573d6000803e3d6000fd5b505050506040513d601f19601f82011682018060405250810190612758919061370b565b50919b9a5050505050505050505050565b6002546001600160a01b031690565b60208101516000906001600160a01b0316158015906108dd5750506101200151151560011490565b60005460408051630935e01b60e21b815233600482015290516001600160a01b03909216916324d7806c91602480820192602092909190829003018186803b1580156127eb57600080fd5b505afa1580156127ff573d6000803e3d6000fd5b505050506040513d602081101561281557600080fd5b5051612856576040805162461bcd60e51b81526020600482015260136024820152600080516020613e23833981519152604482015290519081900360640190fd5b6000612860612769565b6001600160a01b0316636e07302b6040518163ffffffff1660e01b815260040160206040518083038186803b15801561289857600080fd5b505afa1580156128ac573d6000803e3d6000fd5b505050506040513d601f19601f820116820180604052508101906128d09190612f95565b8351909150158015906128e4575082518110155b6129156040518060400160405280601081526020016f1253959053125117d054d4d15517d25160821b815250611ea3565b906129335760405162461bcd60e51b815260040161096f9190613c1c565b5060006001600160a01b031683602001516001600160a01b0316141561298d6040518060400160405280601881526020017f494e41564c49445f434f4e54524143545f414444524553530000000000000000815250611ea3565b906129ab5760405162461bcd60e51b815260040161096f9190613c1c565b5060006001600160a01b03168361010001516001600160a01b031614156129e9604051806060016040528060238152602001613e0060239139611ea3565b90612a075760405162461bcd60e51b815260040161096f9190613c1c565b5060006001600160a01b031683602001516001600160a01b03161415612a616040518060400160405280601e81526020017f494e56414c49445f41535345545f434f4e54524143545f414444524553530000815250611ea3565b90612a7f5760405162461bcd60e51b815260040161096f9190613c1c565b5060055461010084015160405163518b04eb60e11b81526001600160a01b039092169163a31609d691612ab791869190600401613c2f565b600060405180830381600087803b158015612ad157600080fd5b505af1158015612ae5573d6000803e3d6000fd5b50505050612af1612769565b8351604051636971082560e11b81526001600160a01b03929092169163d2e2104a91612b21918790600401613cfd565b600060405180830381600087803b158015612b3b57600080fd5b505af1158015612b4f573d6000803e3d6000fd5b50505050505050565b604051806101000160405280600081526020016060815260200160008152602001600081526020016000815260200160608152602001606081526020016000151581525090565b604080516101808101825260008082526020820181905291810182905260608082018390526080820183905260a0820181905260c0820181905260e082015261010081018290526101208101829052610140810182905261016081019190915290565b604051806060016040528060008152602001606081526020016000151581525090565b80356106f481613dd9565b80516106f481613dd9565b600082601f830112612c4b578081fd5b81356020612c60612c5b83613d6b565b613d48565b82815281810190858301855b85811015612c9557612c83898684358b0101612d0d565b84529284019290840190600101612c6c565b5090979650505050505050565b600082601f830112612cb2578081fd5b81516020612cc2612c5b83613d6b565b82815281810190858301855b85811015612c9557612ce5898684518b0101612d59565b84529284019290840190600101612cce565b80356106f481613df1565b80516106f481613df1565b600082601f830112612d1d578081fd5b8135612d2b612c5b82613d88565b818152846020838601011115612d3f578283fd5b816020850160208301379081016020019190915292915050565b600082601f830112612d69578081fd5b8151612d77612c5b82613d88565b818152846020838601011115612d8b578283fd5b612d9c826020830160208701613da9565b949350505050565b805169ffffffffffffffffffff811681146106f457600080fd5b805160ff811681146106f457600080fd5b600060208284031215612de0578081fd5b8135610cd981613dd9565b600080600080600080600080610100898b031215612e07578384fd5b612e1089612c25565b9750612e1e60208a01612cf7565b9650612e2c60408a01612c25565b955060608901356001600160401b0380821115612e47578586fd5b612e538c838d01612d0d565b965060808b0135915080821115612e68578586fd5b612e748c838d01612d0d565b955060a08b0135915080821115612e89578485fd5b50612e968b828c01612d0d565b935050612ea560c08a01612c25565b9150612eb360e08a01612cf7565b90509295985092959890939650565b60006020808385031215612ed4578182fd5b82516001600160401b0380821115612eea578384fd5b818501915085601f830112612efd578384fd5b8151612f0b612c5b82613d6b565b81815284810190848601875b84811015612f865781518701604080601f19838f03011215612f37578a8bfd5b80518181018181108a82111715612f4a57fe5b8252828b015189811115612f5c578c8dfd5b612f6a8f8d83870101612d59565b8252509101518982015284529287019290870190600101612f17565b50909998505050505050505050565b600060208284031215612fa6578081fd5b5051919050565b600060208284031215612fbe578081fd5b81356001600160401b03811115612fd3578182fd5b612d9c84828501612d0d565b600060208284031215612ff0578081fd5b81516001600160401b03811115613005578182fd5b612d9c84828501612d59565b60008060408385031215613023578182fd5b82356001600160401b03811115613038578283fd5b61304485828601612d0d565b925050602083013561305581613dd9565b809150509250929050565b60008060408385031215613072578182fd5b82356001600160401b03811115613087578283fd5b61309385828601612d0d565b925050602083013561305581613df1565b600080604083850312156130b6578182fd5b82356001600160401b038111156130cb578283fd5b6130d785828601612d0d565b95602094909401359450505050565b600080604083850312156130f8578182fd5b82356001600160401b038082111561310e578384fd5b61311a86838701612d0d565b9350602085013591508082111561312f578283fd5b5061313c85828601612d0d565b9150509250929050565b600080600080600080600060e0888a031215613160578081fd5b87356001600160401b0380821115613176578283fd5b6131828b838c01612d0d565b985060208a0135975060408a0135965060608a0135955060808a01359150808211156131ac578283fd5b6131b88b838c01612c3b565b945060a08a01359150808211156131cd578283fd5b506131da8a828b01612c3b565b92505060c08801356131eb81613df1565b8091505092959891949750929550565b60006020828403121561320c578081fd5b81516001600160401b0380821115613222578283fd5b8184019150610180808387031215613238578384fd5b61324181613d48565b90508251815261325360208401612c30565b602082015261326460408401612dbe565b604082015261327560608401612d02565b606082015261328660808401612c30565b608082015260a08301518281111561329c578485fd5b6132a887828601612d59565b60a08301525060c0830151828111156132bf578485fd5b6132cb87828601612d59565b60c08301525060e0830151828111156132e2578485fd5b6132ee87828601612d59565b60e0830152506101009150613304828401612c30565b828201526101209150613318828401612d02565b91810191909152610140828101519082015261016091820151918101919091529392505050565b600060208284031215613350578081fd5b81516001600160401b0380821115613366578283fd5b9083019060608286031215613379578283fd5b60405160608101818110838211171561338e57fe5b604052825181526020830151828111156133a6578485fd5b6133b287828601612d59565b602083015250604083015192506133c883613df1565b6040810192909252509392505050565b6000602082840312156133e9578081fd5b81516001600160401b03808211156133ff578283fd5b8184019150610100808387031215613415578384fd5b61341e81613d48565b905082518152602083015182811115613435578485fd5b61344187828601612d59565b60208301525060408301516040820152606083015160608201526080830151608082015260a083015182811115613476578485fd5b61348287828601612ca2565b60a08301525060c083015182811115613499578485fd5b6134a587828601612ca2565b60c0830152506134b760e08401612d02565b60e082015295945050505050565b600080604083850312156134d7578182fd5b82356001600160401b03808211156134ed578384fd5b8185019150610100808388031215613503578485fd5b61350c81613d48565b905082358152602083013582811115613523578586fd5b61352f88828601612d0d565b60208301525060408301356040820152606083013560608201526080830135608082015260a083013582811115613564578586fd5b61357088828601612c3b565b60a08301525060c083013582811115613587578586fd5b61359388828601612c3b565b60c0830152506135a560e08401612cf7565b60e08201529660209590950135955050505050565b6000602082840312156135cb578081fd5b5035919050565b60008060008060008060008060006101208a8c0312156135f0578283fd5b8935985061360060208b01612c25565b975061360e60408b01612cf7565b965061361c60608b01612c25565b955060808a01356001600160401b0380821115613637578485fd5b6136438d838e01612d0d565b965060a08c0135915080821115613658578485fd5b6136648d838e01612d0d565b955060c08c0135915080821115613679578485fd5b506136868c828d01612d0d565b93505061369560e08b01612c25565b91506136a46101008b01612cf7565b90509295985092959850929598565b6000806000606084860312156136c7578081fd5b8335925060208401356001600160401b038111156136e3578182fd5b6136ef86828701612d0d565b925050604084013561370081613df1565b809150509250925092565b600080600080600060a08688031215613722578283fd5b61372b86612da4565b945060208601519350604086015192506060860151915061374e60808701612da4565b90509295509295909350565b60006020828403121561376b578081fd5b610cd982612dbe565b6001600160a01b03169052565b6000815180845260208085018081965082840281019150828601855b858110156137c75782840389526137b5848351613866565b9885019893509084019060010161379d565b5091979650505050505050565b6000815180845260208085018081965082840281019150828601855b858110156137c757828403895261380884835161397d565b988501989350908401906001016137f0565b6000815180845260208085018081965082840281019150828601855b858110156137c757828403895261384e8483516139b2565b98850198935090840190600101613836565b15159052565b6000815180845261387e816020860160208601613da9565b601f01601f19169290920160200192915050565b60006101808251845260208301516138ad6020860182613774565b5060408301516138c06040860182613a3d565b5060608301516138d36060860182613860565b5060808301516138e66080860182613774565b5060a08301518160a08601526138fe82860182613866565b91505060c083015184820360c08601526139188282613866565b91505060e083015184820360e08601526139328282613866565b9150506101008084015161394882870182613774565b50506101208084015161395d82870182613860565b505061014083810151908501526101609283015192909301919091525090565b60008151835260208201516060602085015261399c6060850182613866565b6040938401511515949093019390935250919050565b60006101008251845260208301518160208601526139d282860182613866565b91505060408301516040850152606083015160608501526080830151608085015260a083015184820360a0860152613a0a8282613781565b91505060c083015184820360c0860152613a248282613781565b91505060e0830151151560e08501528091505092915050565b60ff169052565b60609190911b6bffffffffffffffffffffffff1916815260140190565b90815260200190565b60008251613a7c818460208701613da9565b9190910192915050565b90565b6000642c2824a29d60d91b82528351613aa9816005850160208801613da9565b601d60f91b6005918401918201528351613aca816006840160208801613da9565b01600601949350505050565b6001600160a01b0391909116815260200190565b6000602080830181845280855180835260408601915060408482028701019250838701855b82811015613b3d57603f19888603018452613b2b858351613892565b94509285019290850190600101613b0f565b5092979650505050505050565b600060208252610cd960208301846137d4565b600060408252613b7060408301856137d4565b8281036020840152613b82818561381a565b95945050505050565b60208082528251828201819052600091906040908185019080840286018301878501865b83811015613bf057888303603f1901855281518051878552613bd388860182613866565b918901519489019490945294870194925090860190600101613baf565b509098975050505050505050565b600060208252610cd9602083018461381a565b901515815260200190565b600060208252610cd96020830184613866565b600060408252613c426040830185613866565b905060018060a01b03831660208301529392505050565b600060408252613c6c6040830185613866565b90508260208301529392505050565b602080825260169082015275161412514e9054d4d15517d393d517d153905093115160521b604082015260600190565b602080825260129082015271161412514e955392d393d5d397d054d4d15560721b604082015260600190565b600060208252610cd96020830184613892565b600060208252610cd960208301846139b2565b600083825260406020830152612d9c6040830184613892565b600083825260406020830152612d9c604083018461397d565b600083825260406020830152612d9c60408301846139b2565b6040518181016001600160401b0381118282101715613d6357fe5b604052919050565b60006001600160401b03821115613d7e57fe5b5060209081020190565b60006001600160401b03821115613d9b57fe5b50601f01601f191660200190565b60005b83811015613dc4578181015183820152602001613dac565b83811115613dd3576000848401525b50505050565b6001600160a01b0381168114613dee57600080fd5b50565b8015158114613dee57600080fdfe494e41564c49445f50524943455f464545445f434f4e54524143545f414444524553534f4e4c595f41444d494e535f414c4c4f57454400000000000000000000000000585049453a56414c49445f53544f524147455f414444524553535f5245515549524544a26469706673582212209fbae181828089d56d92d2e0daecc664faac18ca894f065e16cb9a63ed85171464736f6c634300070600334f4e4c595f434f4e54524143545f4f574e45525f43414e5f494e495449414c495a45585049453a56414c49445f53544f524147455f414444524553535f52455155495245445045524d495353494f4e5f4d414e414745525f414c52454144595f494e495449414c495a4544",
  "devdoc": {
    "kind": "dev",
    "methods": {
      "addAsset(address,bool,address,string,string,string,address,bool)": {
        "details": "add a new asset to supported list",
        "params": {
          "contractAddress": "asset's contract address",
          "isEnabled": "if contract is enabled",
          "isPegged": "a  boolean describing wether its pegged  or not",
          "originalName": "if pegged, then original asset name",
          "originalSymbol": "if pegged, the original symbol",
          "peggedAssetGateway": "gateway for interacting with the asset"
        }
      },
      "addPaymentMethod(string,uint256,uint256,uint256,string[],string[],bool)": {
        "details": "add a new payment method",
        "params": {
          "categoryId": "category id for the new payment  type",
          "continents": "Supported continents",
          "countries": "supported countries",
          "isEnabled": "is this payment method enabled",
          "name": "payment method name"
        },
        "returns": {
          "_0": "uint256"
        }
      },
      "addPaymentMethodCategory(string,bool)": {
        "details": "add a new payment type category",
        "params": {
          "name": "category name in string"
        },
        "returns": {
          "_0": "uint256 new category  id"
        }
      },
      "getAllAssets()": {
        "details": "get all assets "
      },
      "getAsset(address)": {
        "details": "fetch asset by it contract address",
        "params": {
          "_contractAddress": "asset's contract address"
        },
        "returns": {
          "_0": "AssetsStructs.AssetItem"
        }
      },
      "getAssetById(uint256)": {
        "details": "getAssetById",
        "params": {
          "_id": "asset id"
        }
      },
      "getChainID()": {
        "details": "get chain id"
      },
      "getConfig(string)": {
        "params": {
          "_key": "config key "
        }
      },
      "getDataStore()": {
        "details": "this returns an instance of he same contract"
      },
      "getLatestPrice(string)": {
        "details": "get latest price",
        "params": {
          "_asset": "the asset which we need latest price for"
        }
      },
      "getPaymentMethod(uint256)": {
        "details": "getPaymentMethod",
        "params": {
          "_id": "paymentMethod id"
        }
      },
      "getPaymentMethods()": {
        "details": "get all payment types "
      },
      "getPaymentMethodsAndCategories()": {
        "details": "Fetch payment types and categories in a single query"
      },
      "getPaymentMethodsCategories()": {
        "details": "get all payment types categories ",
        "returns": {
          "_0": "(PaymentMethodsStructs.CategoryItem[] memory) CategoryNames Array with category id as array index"
        }
      },
      "getTotalPaymentMethods()": {
        "details": "getTotalPaymentMethods"
      },
      "getTotalPaymentMethodsCategories()": {
        "details": "getTotalPaymentMethods"
      },
      "isAssetSupported(address)": {
        "details": "is the provided asset contract supported",
        "params": {
          "_contractAddress": "asset contract address"
        }
      },
      "isValidAssetItem(uint256)": {
        "params": {
          "_id": "asset id"
        }
      },
      "removePaymentMethod(uint256)": {
        "details": "remove  a payment method ",
        "params": {
          "_id": "the payment method id"
        }
      },
      "removePaymentMethodCategory(uint256)": {
        "details": "delete a cetegory",
        "params": {
          "_id": "category  id"
        }
      },
      "setAssetPriceFeedContract(string,address)": {
        "details": "set priceFeed contract",
        "params": {
          "_asset": "the asset  to fetch price feed",
          "_contract": "feed contract"
        }
      },
      "setConfigData(string,bytes32)": {
        "params": {
          "_key": "config key",
          "_value": "cofig data"
        }
      },
      "setPermissionManager(address)": {
        "details": "set permission manager contract"
      },
      "statusMsg(string)": {
        "details": "status msg",
        "params": {
          "_text": "status text  "
        }
      },
      "statusMsg(string,bytes32)": {
        "details": "status msg",
        "params": {
          "_params": "he parameters ",
          "_text": "status text  "
        }
      },
      "statusMsg(string,string)": {
        "details": "status msg",
        "params": {
          "_params": "he parameters ",
          "_text": "status text  "
        }
      },
      "updateAsset(uint256,address,bool,address,string,string,string,address,bool)": {
        "details": "add a new asset to supported list",
        "params": {
          "contractAddress": "asset's contract address",
          "id": "asset Id",
          "isEnabled": "if contract is enabled",
          "isPegged": "a  boolean describing wether its pegged  or not",
          "originalName": "if pegged, then original asset name",
          "originalSymbol": "if pegged, the original symbol",
          "peggedAssetGateway": "the pegged asset gateway"
        }
      },
      "updatePaymentMethod((uint256,string,uint256,uint256,uint256,string[],string[],bool),uint256)": {
        "details": "update  payment type info",
        "params": {
          "_dataToSave": "payment method data",
          "categoryId": "the new category id of the payment type"
        }
      },
      "updatePaymentMethodCategory(uint256,string,bool)": {
        "details": "add a new payment type category",
        "params": {
          "categoryId": "the category id",
          "isEnabled": "if the category is enabled or not",
          "newCategoryName": "new category name to change"
        }
      }
    },
    "version": 1
  },
  "userdoc": {
    "kind": "user",
    "methods": {
      "STORAGE_CONTRACT()": {
        "notice": "Store address"
      },
      "getAllConfigs()": {
        "notice": "get all config data"
      },
      "getConfig(string)": {
        "notice": "get config"
      },
      "getPriceFeedContract(string)": {
        "notice": "getAggregatorV3Interface"
      },
      "grantRole(string,address)": {
        "notice": "grant role"
      },
      "hasRole(string,address)": {
        "notice": "hasRole"
      },
      "isValidAssetItem(uint256)": {
        "notice": "isValidAsset using id"
      },
      "setConfigData(string,bytes32)": {
        "notice": "setConfig"
      },
      "setStorage(address)": {
        "notice": "setStorage"
      }
    },
    "version": 1
  },
  "storageLayout": {
    "storage": [
      {
        "astId": 3021,
        "contract": "contracts/Factory.sol:Factory",
        "label": "PERMISSION_MANAGER",
        "offset": 0,
        "slot": "0",
        "type": "t_contract(IPermissionManager)3015"
      },
      {
        "astId": 3023,
        "contract": "contracts/Factory.sol:Factory",
        "label": "pmInitialized",
        "offset": 20,
        "slot": "0",
        "type": "t_bool"
      },
      {
        "astId": 3025,
        "contract": "contracts/Factory.sol:Factory",
        "label": "_owner",
        "offset": 0,
        "slot": "1",
        "type": "t_address"
      },
      {
        "astId": 3915,
        "contract": "contracts/Factory.sol:Factory",
        "label": "STORAGE_CONTRACT",
        "offset": 0,
        "slot": "2",
        "type": "t_contract(IStorage)4275"
      },
      {
        "astId": 3917,
        "contract": "contracts/Factory.sol:Factory",
        "label": "dataStoreInitialized",
        "offset": 20,
        "slot": "2",
        "type": "t_bool"
      },
      {
        "astId": 3179,
        "contract": "contracts/Factory.sol:Factory",
        "label": "providerName",
        "offset": 0,
        "slot": "3",
        "type": "t_string_storage"
      },
      {
        "astId": 3183,
        "contract": "contracts/Factory.sol:Factory",
        "label": "feedsContracts",
        "offset": 0,
        "slot": "4",
        "type": "t_mapping(t_string_memory_ptr,t_address)"
      },
      {
        "astId": 1029,
        "contract": "contracts/Factory.sol:Factory",
        "label": "_priceFeed",
        "offset": 0,
        "slot": "5",
        "type": "t_contract(PriceFeed)3449"
      }
    ],
    "types": {
      "t_address": {
        "encoding": "inplace",
        "label": "address",
        "numberOfBytes": "20"
      },
      "t_bool": {
        "encoding": "inplace",
        "label": "bool",
        "numberOfBytes": "1"
      },
      "t_contract(IPermissionManager)3015": {
        "encoding": "inplace",
        "label": "contract IPermissionManager",
        "numberOfBytes": "20"
      },
      "t_contract(IStorage)4275": {
        "encoding": "inplace",
        "label": "contract IStorage",
        "numberOfBytes": "20"
      },
      "t_contract(PriceFeed)3449": {
        "encoding": "inplace",
        "label": "contract PriceFeed",
        "numberOfBytes": "20"
      },
      "t_mapping(t_string_memory_ptr,t_address)": {
        "encoding": "mapping",
        "key": "t_string_memory_ptr",
        "label": "mapping(string => address)",
        "numberOfBytes": "32",
        "value": "t_address"
      },
      "t_string_memory_ptr": {
        "encoding": "bytes",
        "label": "string",
        "numberOfBytes": "32"
      },
      "t_string_storage": {
        "encoding": "bytes",
        "label": "string",
        "numberOfBytes": "32"
      }
    }
  }
}